:020000040000FA
:1000000000308A00172C0000FF00030E8301A100BE
:100010000A08A0008A0105308A000B2D09008B1305
:100020008B1B0F28850114308600A6308700FF3017
:1000300083168500E1308600193087000F300317E2
:100040008800890103139501960171308F001430E7
:100050008312CF0083160F1936288312CF08031D91
:10006000332883163628CF032A288316403083127C
:10007000CF004F3084008313000803194C2802304E
:10008000F800F701F70B4228F80B41289730F700EA
:10009000F70B4828800B3F288A110A122C2C831654
:1000A0004508831203178D00831603134608831235
:1000B00003178F00031083160313C90CCA014908E4
:1000C0004A0203189028640003178C170C140000D0
:1000D000000003134808FA004708C70A0319C80AB2
:1000E000840083137A188317831203170C08800087
:1000F000831603134808FA004708C70A0319C80AF9
:10010000840083137A188317831203170E08800064
:100110008D0A8D0803198F0A83160313CA0A5F28F4
:10012000831200340530D800D701D90158081E3C8D
:10013000031CB628031DA0285708FE3C031CB62844
:1001400058088316C600831257088316C500C801D5
:100150005A30C7000230C90083124F205A08D9070D
:100160005B08D907D70A0319D80A9628D908031DAE
:10017000BD280130F800C028C0280030F800C02891
:1001800000342030DF00DB01DC01DD01DE01560838
:10019000FA005508F9005408F8005308F700031056
:1001A000771CE0285708DB0758080318580FDC07AE
:1001B00059080318590FDD075A0803185A0FDE07AC
:1001C000DE0CDD0CDC0CDB0CFA0CF90CF80CF70C7B
:1001D000DF0BCF280034210895009509221CF22856
:1001E0001712F3281716A21CF7289712F82897164B
:1001F00000342308A1002408A200EB200034A7103B
:10020000CB01CC016130CD00003494123030831624
:100210009300363083129400831691019417831251
:10022000CE010034DB080319F12957080F39E1002A
:10023000E2010310610DF900620DFA007908E00097
:100240005708F039DE005808DF00E008031D2C29AC
:100250005B081F3C031C3A295F088316C600831203
:100260005E088316C500C801A030C7002030C90051
:1002700083124F20DD01A030DC006008DC0703188A
:10028000DD0A60081F3C031C6729DB080319672986
:100290005D08FA005C08DC0A0319DD0AE1007A084F
:1002A000E2005A08FA005908D90A0319DA0A840048
:1002B00083137A1883170008E3006108840083130E
:1002C0006218831763088000E00ADB03412957089E
:1002D0000F38E1005808E20001306107D7005808E4
:1002E000D8000318D80A5E0803178D0003135F08AF
:1002F00003178F000313DD01A030DC00E00160086C
:10030000073C031CB1295D08FA005C08DC0A0319EC
:10031000DD0A840083137A188317000803178C0002
:1003200003135D08FA005C08DC0A0319DD0A840087
:1003300083137A188317000803178E0083168C170F
:100340000C1555308D00AA308D008C140000000073
:100350000C1183128D0A8D0803198F0A0313E00A0A
:100360007F290830DE070318DF0A5E0803178D00B7
:1003700003135F0803178F000313E0016008073CB5
:10038000031CF0295D08FA005C08DC0A0319DD0A89
:10039000840083137A188317000803178C00031353
:1003A0005D08FA005C08DC0A0319DD0A8400831387
:1003B0007A188317000803178E0083168C170C1504
:1003C00055308D00AA308D008C14000000000C11F7
:1003D00083128D0A8D0803198F0A0313E00ABE29C0
:1003E000122900340717871264008101FF30831639
:1003F00081008312031785013030F800053803139C
:100400009200FF308316920083128C101B30A800DC
:100410000130AA001730A9009D013C309700FF3041
:100420009500F93003178D0083168C130C1483127A
:100430000C080313A300F83003178D0083168C13E8
:100440000C1483120C0803390313A400D201D10148
:10045000D0012308CF00CF0DD00DD10DD20DCF0D7F
:10046000D00DD10DD20DFC30CF052408CF04520899
:10047000D6005108D5005008D4004F08D300DA0147
:10048000D9010330D8000C30D700C1207A08D2003F
:100490007908D1007808D0007708CF005008CF0045
:1004A0005108D0005208D100D201D20CD10CD00C8E
:1004B000CF0CD20CD10CD00CCF0C3F30D2054F0852
:1004C0000339A400D20CD10CD00CCF0CD20CD10C1F
:1004D000D00CCF0C3F30D2054F08A300FB300317E0
:1004E0008D0083168C130C1483120C080313A500C3
:1004F000FA3003178D0083168C130C1483120C082A
:1005000003390313A600D201D101D0012508CF0081
:10051000CF0DD00DD10DD20DCF0DD00DD10DD20DEF
:10052000FC30CF052608CF045208D6005108D5006C
:100530005008D4004F08D300DA01D9010330D800A5
:100540000C30D700C1207A08D2007908D100780891
:10055000D0007708CF005008CF005108D0005208D3
:10056000D100D201D20CD10CD00CCF0CD20CD10CBA
:10057000D00CCF0C3F30D2054F080339A600D20C67
:10058000D10CD00CCF0CD20CD10CD00CCF0C3F30F6
:10059000D2054F08A500F9202710FF20052183165A
:1005A0008614031709158312031306168713871081
:1005B0008C1C192B29080319AA03A90BEB2AAA08DA
:1005C000031DEB2A0130AA001730A9000717871274
:1005D0001C30A800F42A29088B3C031DF42AAA0821
:1005E000031DF42A07178716A80B172B1B30A8002A
:1005F000141EFC2A141F022BCE0A4E08053C0319B8
:100600000521032BCE01F7012718F71606087706F8
:1006100020390319172B2710861A2714271C162B8D
:100620002508A1002608A200EB20172BF9208C102A
:10063000122C8C1D122C831614088312CF00130861
:10064000D0008C11CE01141F282B0521122C122C46
:100650004F082539013A03193D2B203A03193E2B47
:10066000253A0319DE2B013A0319DE2B213A03192F
:10067000DE2B043A0319102C112C122C5008D10037
:100680004C081F3C031CDB2B4C08CC0A2B3E84007F
:100690008313510880004C0B502B5108CB00DA2BF0
:1006A00005304B074C02031DDA2B4C08D2005208D0
:1006B000203C03185E2B6A30CD00DA2BD501D60121
:1006C0005208560203186C2B2B30560784008313F4
:1006D0000008D507D60A602BD5080319722B6530A0
:1006E000CD00DA2B2E080319792B013A0319C32BFD
:1006F000D72B03102C0CD4002D0CD3005408043C31
:100700000318C02B54081E3C031CC02B03102B0CD9
:100710005307D7005408D8000318D80A01305702ED
:10072000D9005808DA000030031C0130DA025A08F8
:100730001E3C031CA62B5408D8005308D700DA012E
:100740002F30D9002B08DB001221C02B5308003CAE
:10075000D7001F30D8005408031C540FD8020310D0
:10076000570DF900580DFA007908D6005408D80042
:100770005308D700DA012F30D9005608DB001221C8
:10078000AA30CD00DA2BAB08031DD32BAC08031D18
:10079000D32BAD08031DD32B9220780BD32BAA307B
:1007A000CD00A714D62B6530CD00A710DA2B623010
:1007B000CD00DA2BDD2B6A30CD00122C83161418F5
:1007C000DF2B831294134D089300941BE22BE82B2C
:1007D000E92B1416A71C0E2C4D08AA3C031D0E2C49
:1007E000F53003178D00AA308C0083168C130C157E
:1007F000831203130B08F7008B138316031755306E
:100800008D00AA308D008C148C18042C0C117708E4
:10081000831203138B048A0100280F2CFF20122C53
:10082000122C252B6400D82A8A110A12422C84012A
:1008300083131F308305831603170908C039890005
:1008400003131F129F1200300317880083128701C1
:100850008801890103130F28F53003178D008316D3
:100860008C130C1483120C08553C03193D2C0313F4
:100870009220F808031D3F2C03170313F2290530BB
:100880008A0082018A0100286300FF2EFF2EFF2EBE
:10089000FF2EFF2EFF2EFF2EFF2EFF2EFF2EFF2EF0
:1008A000FF2EFF2EFF2EFF2EFF2EFF2EFF2EFF2EE0
:1008B000FF2EFF2EFF2EFF2EFF2EFF2EFF2EFF2ED0
:1008C000FF2EFF2EFF2EFF2EFF2EFF2EFF2EFF2EC0
:1008D000FF2EFF2EFF2EFF2EFF2EFF2EFF2EFF2EB0
:1008E000FF2EFF2EFF2EFF2EFF2EFF2EFF2EFF2EA0
:1008F000FF2EFF2EFF2EFF2EFF2EFF2EFF2EFF2E90
:10090000FF2EFF2EFF2EFF2EFF2EFF2EFF2EFF2E7F
:10091000FF2EFF2EFF2EFF2EFF2EFF2EFF2EFF2E6F
:10092000FF2EFF2EFF2EFF2EFF2EFF2EFF2EFF2E5F
:10093000FF2EFF2EFF2EFF2EFF2EFF2EFF2EFF2E4F
:10094000FF2EFF2EFF2EFF2EFF2EFF2EFF2EFF2E3F
:10095000FF2EFF2EFF2EFF2EFF2EFF2EFF2EFF2E2F
:10096000FF2EFF2EFF2EFF2EFF2EFF2EFF2EFF2E1F
:10097000FF2EFF2EFF2EFF2EFF2EFF2EFF2EFF2E0F
:10098000FF2EFF2EFF2EFF2EFF2EFF2EFF2EFF2EFF
:10099000FF2EFF2EFF2EFF2EFF2EFF2EFF2EFF2EEF
:1009A000FF2EFF2EFF2EFF2EFF2EFF2EFF2EFF2EDF
:1009B000FF2EFF2EFF2EFF2EFF2EFF2EFF2EFF2ECF
:1009C000FF2EFF2EFF2EFF2EFF2EFF2EFF2EFF2EBF
:1009D000FF2EFF2EFF2EFF2EFF2EFF2EFF2EFF2EAF
:1009E000FF2EFF2EFF2EFF2EFF2EFF2EFF2EFF2E9F
:1009F000FF2EFF2EFF2EFF2EFF2EFF2EFF2EFF2E8F
:100A000000308A00402D00000A148A100A1582075F
:100A10000134043401340134B8340B3450344634D6
:100A20000A34553402340134003403340634353486
:100A300037343B343D34443446344E3453345F34DD
:100A4000623476347B34003400340034003474343F
:100A5000803083169F00813083129F008A150A160A
:100A6000D62881010B11E2010034E20A0B11003497
:100A70005F11B80803193E2D06113F2D06150034ED
:100A8000840183131F308305831603170908C039B7
:100A9000890003131F129F1200300317880083126E
:100AA0008701880189010A168A15031300280A1292
:100AB0008A116300FF2EFF2EFF2EFF2EFF2EFF2E2A
:100AC000201C6E2D03172508073C031C692D0313FA
:100AD0006E2D2508273C0318792D031303172508CD
:100AE0008D0083168C130C1483120C08F800812DD2
:100AF000812D0830250203130425F800F8000317A0
:100B0000812D03130034F93003178D0083168C13E5
:100B10000C1483120C080313B400F83003178D0073
:100B200083168C130C1483120C0803390313B500BD
:100B30003408A1003508A200A014F63003178D0078
:100B400083168C130C1483120C080313BB00F730AC
:100B500003178D0083168C130C1483120C080313D7
:100B6000BC003C0803179A0003133B0803179900C5
:100B700003135D08FA005C08F8007A0803171A02EC
:100B8000031CCE2D031DC82D190878020318CE2D85
:100B900003135D08BC005C08BB00031703133C088B
:100BA00003179A0003133B080317990003135B080C
:100BB000FA005A08F80003171A087A02031CEC2DF1
:100BC000031DE62D780819020318EC2D03135B08AA
:100BD000BC005A08BB00031703133B08B9003C08CC
:100BE000BA00A015FB3003178D0083168C130C146C
:100BF00083120C080313A300FA3003178D00831629
:100C00008C130C1483120C0803390313A400201650
:100C10003114DF14003483164D1671308F008312A7
:100C20008D13143003179500831603130F19242E08
:100C3000831203179508031D202E83160313242EF9
:100C40009503142E831603138312291B292E281BA8
:100C50003817291700349412303083169300363039
:100C6000831294008316910194171114CE01D101BF
:100C7000D001CD10D301D401D501D6014D11CD1134
:100C8000D701831200346400031717088D00180879
:100C90008C0083168C130C15831203130B08F700BA
:100CA0008B138316031755308D00AA308D008C14DA
:100CB0008C18582E0C117708831203138B046400D0
:100CC0000034831603170911831203138610831649
:100CD0008610861C6D2E8610692E8312861C722E3D
:100CE00086106E2E8316AA178312003483162A10DC
:100CF0008312DF14003483162C088312C800831675
:100D000044088312C900831643088312CA0083165D
:100D100048088312CB00831647088312CC00831641
:100D20004C088312CD0083164B088312CE007D0839
:100D3000CF007C08D0000034831649088312CD0010
:100D4000831648088312CE004D088316CC00831208
:100D50004E088316CB007D088312CF007C08D0009C
:100D600000342918B52E28183814291400340530F9
:100D7000F600003420300317B400B001B101B20115
:100D8000B3012B08FA002A08F9002908F8002808FE
:100D9000F7000310771CDA2E2C08B0072D08031873
:100DA0002D0FB1072E0803182E0FB2072F080318B6
:100DB0002F0FB307B30CB20CB10CB00CFA0CF90C3A
:100DC000F80CF70CB40BC92E0313003410300317C2
:100DD000AC00F701FA01A90CA80C031CF52E2A0897
:100DE000F7070318FA0A2B08FA07FA0CF70CF90CA4
:100DF000F80CAC0BEB2E03130034FF2EFF2EFF2E4E
:100E0000ED3003178D0083168C130C1483120C081D
:100E10000313D2008316B001831252088316AF0069
:100E2000EE30831203178D0083168C130C1483127B
:100E30000C080313D3008316B201831253088316E0
:100E4000B100EF30831203178D0083168C130C143E
:100E500083120C080313D4008316B40183125408C0
:100E60008316B300B30DB40DB30DB40DFC30B30550
:100E7000F030831203178D0083168C130C14831229
:100E80000C080313D5008316B60183125508831688
:100E9000B500B50DB60DB50DB60DB50DB60DB50D4C
:100EA000B60DF030B505F130831203178D008316AF
:100EB0008C130C1483120C080313D6008316B8018C
:100EC000831256088316B700B70DB80DB70DB80DCD
:100ED000B70DB80DB70DB80DF030B705F23083126D
:100EE00003178D0083168C130C1483120C08031344
:100EF000D7008316BA01831257088316B900B90DBB
:100F0000BA0DB90DBA0DB90DBA0DB90DBA0DB90DAD
:100F1000BA0DE030B905F330831203178D00831644
:100F20008C130C1483120C080313D8008316BC0115
:100F3000831258088316BB00BB0DBC0DBB0DBC0D46
:100F4000BB0DBC0DBB0DBC0DF030BB05EF308312EB
:100F500003178D0083168C130C1483120C080313D3
:100F6000D9008316BE01831259088316BD00BD0D3A
:100F7000BE0DBD0DBE0DFC30BD0583120034031740
:100F800029082B068039AD00A91FCB2FA809A90974
:100F9000A80A0319A90AAB1FD22FAA09AB09AA0AEA
:100FA0000319AB0AF801F901F701FA012B08031D37
:100FB000DC2F2A080319F62F1030AC000310A80DFF
:100FC000A90DF70DFA0D2B087A02031DE92F2A0847
:100FD0007702031CF22F2A08F702031CFA032B08DE
:100FE000FA020314F80DF90DAC0BDE2FAD1FFD2F27
:100FF000F809F909F80A0319F90A03130034FF2E56
:101000008316E10BA22883121F083C3903179400B2
:101010001408043C031D1528813003139F00783009
:101020008316E1001F288312031714080C3C031DCC
:101030002128893003139F0005308316E1008312B5
:10104000031703131E08FA0083161E08DD077A082B
:1010500003187A0FDE07003003180130DF07003075
:1010600003180130E00783120C1303179408031DC3
:101070004B28831603136008E9005F08E8005E0848
:10108000E7005D08E6002A1D48288312DF16831654
:101090009D28831203171408043C031D5D28831642
:1010A00003136008E5005F08E4005E08E3005D08E4
:1010B000E20083129F149C2803171408083C031DA8
:1010C0007428831603135D08EA075E0803185E0F91
:1010D000EB075F0803185F0FEC0760080318600F49
:1010E000ED079D2883120317831603135D088312EF
:1010F00003179007831603135E0803185E0F8128F9
:101100008628831203179107831603135F080318B9
:101110005F0F8B28902883120317920783160313FF
:1011200060080318600F95289A2883120317930705
:101130008316031383129F148316E001DF01DE017F
:10114000DD01B82883120C131E08FA0083161E084E
:10115000DD077A0803187A0FDE0700300318013024
:10116000DF07003003180130E00783129F14831655
:1011700083128A150A165D2C83161408831203172E
:101180009400031313088316D20083128C11831664
:10119000D4018312141FD6288A112B268A152919E7
:1011A000D3282819381529159F2B9F2B03171408AE
:1011B0002539013A03130319ED28203A0319F228BF
:1011C000253A0319ED2A013A0319ED2A213A0319A8
:1011D000ED2A043A03199D2B9E2B8316CE01831210
:1011E00014169F2B8316CE08031DFB285208CF0030
:1011F0000130CE00EA2A4E0B04294F08D1005208D4
:10120000D0000230CE00EA2A5108831203191229B5
:10121000013A03193229033A0319952A013A0319AD
:10122000B62AE62A8316D108031D30295008DF3C70
:10123000031C3029831233181F2983163029831683
:101240005008831203179500970083160313520862
:101250008312031798008A11031343268A158316F5
:101260008312E62A83165008831203196E29013A65
:1012700003197529033A03197D29013A03199129A4
:10128000053A0319A629013A0319AB290F3A0319A4
:10129000B529013A0319C529053A0319CB291C3A86
:1012A0000319E529013A0319072A033A0319232AE6
:1012B000013A0319322A073A0319442A033A031957
:1012C000572A0F3A03195D2A013A0319622A033A91
:1012D0000319702A013A0319822A942A83165208A4
:1012E0008312A100A014DF14942A83165208033934
:1012F0008312A200A014DF14942AB31C9029831631
:1013000052088312A300FB3003179700031323082E
:10131000031798008A11031343268A152016DF1439
:10132000942AB31CA5298316520803398312A400FA
:10133000FA300317970003132408031798008A1143
:10134000031343268A152016DF14942A83165208A5
:101350008312A700942A831652088312A800280833
:10136000B8058A1138258A15942A83165208063939
:10137000FF3A8312A905831652080639FF3A8312F1
:10138000B8058A1138258A15942A8316520803391C
:101390008312AA00942A8316CD1CE3295308FF3A2E
:1013A0005202031DE22983128B13F53003179700B5
:1013B000553098008A11031343268A158A010028A4
:1013C000E4298316CD108312942A3108831652061D
:1013D00003390319F829521CF1298312A015F329A6
:1013E00083168312A014DF14B1113111A9138316CF
:1013F00083123108FC390317950083160313520832
:1014000003398312031715040313B100942A8316BA
:1014100052080139831232060319222A8316520810
:1014200001398312B200B2080319222A06181D2AB4
:1014300042308316AC00202A831240308316AC0061
:1014400083125F14942A83165219292A83123311A6
:101450008316FC308312B3058316520803398312B6
:10146000B304942AB31C432A831652088312B4008F
:10147000F9300317970003133408031798008A11F3
:10148000031343268A15942AB31C562A831652083E
:1014900003398312B500F83003179700031335089A
:1014A000031798008A11031343268A15942A83167A
:1014B0005208FF3A8312B805942A83165208D500C1
:1014C0008312942A831655088312B9008316520892
:1014D0008312BA008316D5018312A015DF14942A53
:1014E000B31C812A831652088312BB00F6300317FF
:1014F000970003133B08031798008A110313432630
:101500008A15942AB31C932A831652088312BC00AE
:10151000F7300317970003133C08031798008A114C
:10152000031343268A15942AE62A83165008073C9B
:10153000031CB42A831233199F2A8316B42A8316F4
:101540005008ED3E8312031796009700831603138D
:1015500052088312031798008A11031343268A1531
:101560008A1100278A1583168312E62A83165008EB
:101570000C3C031CE42A5008243E243A831203192D
:10158000C82A013A0319C82A153A0319D42AE32AAA
:10159000331DD32A83165008243E213E8400831332
:1015A000520880008312E32A8316CD1DE12A5708D2
:1015B000FF3A5202031DE02A83123315E22A8316F2
:1015C000CD118312E32A83168312E62A8316D00AEA
:1015D0000319D10A831214169F2B03179501831642
:1015E0000313510883120319FF2A013A03190F2B21
:1015F000033A0319552B013A0319672B892B640011
:101600008316500883120317960016088D00831660
:101610008C130C1483120C0895000313892B83166A
:101620005008233C031C532B50080C3C031D242B57
:10163000CD1483120E088316D300530883120317A8
:101640009500512B831603135008043C031D342BC3
:10165000831226088316D6004D158312250803171A
:101660009500512B831603135008053C031D492B8D
:101670004D1D422B56088312031795008316031342
:101680004D11482B83122608031795008316031368
:10169000532B5008213E8400831300088312031744
:1016A0009500831603138312892B83165008073C79
:1016B000031C652B5008313E213E84008313000833
:1016C000831203179500831603138312892B831645
:1016D00050080C3C031C872B50080C3C031D7C2B32
:1016E000CD1583120E088316D700570883120317EF
:1016F0009500852B831603135008243E213E840059
:1017000083130008831203179500831603138312B3
:10171000892B831614188A2B831294130317150828
:1017200003139300941B8D2B952B962B1416831665
:10173000D00A0319D10A83129F2B9F2BCC288A151C
:101740000A165D2C5F10C6080319A92B8316AC017D
:10175000831283162C0883120319F42B083A0319F9
:10176000082C033A0319122C063A0319232C1D3AAC
:1017700003192F2C023A0319352C013A03193D2C79
:10178000073A0319472C023A0319502C0D3A031952
:101790006A2C073A0319762C383A03199F2C023A1F
:1017A0000319AC2C013A0319B92C083A0319E72C98
:1017B0001F3A0319EF2C043A0319272D0D3A031988
:1017C000462D793A0319582D013A0319772D033A1A
:1017D0000319812D013A0319892D073A0319A82D00
:1017E000013A0319B22DC62D83162A178A118312C6
:1017F00061268A15871787148A1176268A1506129C
:1018000083163008AE002F08AD000830AC008312FC
:101810008316AD08031D0E2CAE08031DC82D0B301A
:10182000AC00831283168614031709150313AA1339
:101830003208AE003108AD00AA11831206160D3031
:101840008316AC0083128316AD08031D292CAE0845
:10185000031DC82D2A152A131030AC0083128316DD
:10186000AA1D342C1230AC00C82D06168316AE010A
:101870000430AD001330AC00C82D8316AD08031D35
:10188000432CAE08031DC82D1430AC0083128713FF
:1018900083163408AE003308AD001630AC00831256
:1018A000851E572C1B308316AC00692C83128316BF
:1018B000AD08031D672CAE08031D672C8A11831227
:1018C0007B268A1534308316AC00282D692CAA1487
:1018D000C82D831283163608AE003508AD00AA1253
:1018E000831220131C308316AC00C82D8316AA1E49
:1018F000902C8312201B7E2C8316902C20138A118F
:101900009C268A157D0883164C02031C902C031D0F
:101910008D2C4B087C020318902C2430AC00A02C9A
:10192000AD08031D9E2CAE08031D9E2C8A11831248
:101930007B268A1534308316AC00282DC82D8316DB
:101940008312871083162A14F6018312A01420151F
:10195000A015DF14EA01E90183163808AE00370844
:10196000AD00AA128312201383162A122730AC006E
:10197000C82D8316AA1ED82C8312201BC12C8316B7
:10198000D82C8A119C268A157D0883164C02031CCC
:10199000D32C031DCF2C4B087C020318D32C2F30E3
:1019A000AC00E82CD82CAA128312201383162A121A
:1019B000AD08031DE62CAE08031DE62C8A11831228
:1019C0007B268A1534308316AC00282DC82D83164B
:1019D0003A08AE003908AD003030AC0083128316EF
:1019E0002A1E192D44088312C90083164308831246
:1019F000CA008316C608031D0B2DC508031D0B2D39
:101A000044086A3C0318182DFF3A031D0B2D4308A8
:101A1000E53C0318182D8312A01A132DA01A132DBC
:101A20000530E100A01626308316AC00AD2C192D30
:101A30002A12AD08031D262DAE08031D262D8A117E
:101A400083127B268A1534308316AC00C82D83168A
:101A50008312871787148A1176268A150612831631
:101A60003C08AE003B08AD003930AC008312A01238
:101A70008A11B1268A158A11B7268A15C508031955
:101A8000462D0130C6008316C82D83128316AD087B
:101A9000031D4C2DAE08031DC82D1230AC0083125F
:101AA000A0128A11B1268A158A11B7268A15352CFB
:101AB000871787148A1176268A15061283163E0820
:101AC000AE003D08AD008312C50803196C2D8A11C4
:101AD0007B268A150130C600A0128A11B1268A150C
:101AE0008A11B7268A1541308316AC00C82D83169B
:101AF000AD08031D802DAE08031D802D4230AC00C3
:101B0000C82D8A1161268A15291A892D281A381696
:101B10002916871787148A1176268A1506128316C6
:101B20003C08AE003B08AD008312C50803199D2D8B
:101B30008A117B268A150130C600A0128A11B126AF
:101B40008A158A11B7268A1544308316AC00831291
:101B50008316AD08031DAE2DAE08031DC82D4530FC
:101B6000AC0083120618BF2D83164D18C32DAA1F73
:101B7000C32D8312B2080319BF2D8316C32D8316FC
:101B80002A17AC01F52BAA14C82D83128316C82D71
:101B90002C088312C7000034A011A913B111311110
:101BA0003A080317A100031339080317A000031311
:101BB0005B08FA005A08F800031721087A02031C90
:101BC000FF3FFF3FFF3FBB1FA33F773BF61F7D2635
:101BD000E32FF6232F17320E233B4E17FC13000082
:101BE000FF3FFF3FFF3FBB1FA33F7B3BD537AF33DB
:101BF0007336F333BD12FB1BF73AFF1DAF3CBF3901
:101C0000031D062E2008780203180C2E03135C080F
:101C1000B9005D08BA0003170313B1188F2E1630F0
:101C200003179D001D089D0AA000A5008A1103133B
:101C300060258A15780803179E009F011E081F0261
:101C400003188E2E1D089D0AA000A5008A110313FB
:101C500060258A1578080317A100A3012108A200B6
:101C60002308A9002208A800AB016430AA008A1149
:101C70000313E6268A15790803179A007808990055
:101C80001D089D0AA000A5008A11031360258A156E
:101C900078080317A100A3012108A2002308A900C6
:101CA0002208A800AB016430AA008A110313E626BB
:101CB0008A15790803179C0078089B0003133A08DB
:101CC0000317A100031339080317A0001A08210203
:101CD000031C8C2E031D702E2008190203188C2E55
:101CE00003133A080317A300031339080317A200CC
:101CF00023081C02031C8C2E031D822E1B082202AB
:101D000003188C2E1B080313B90003171C080313B8
:101D1000BA00311503178E2E9F0A1E2E03130A16C2
:101D20008A1100280A128A153C308316A9008312F2
:101D3000A0178A110A16622DDF11F608031DC82E9E
:101D4000A01EC42EE108031DC42E03179501031322
:101D50002708031794001508A9001408A800AB0170
:101D60000C30AA008A110313E6268A157908FA00B6
:101D70007A086402031CC42E031DC22E6308780275
:101D80000318C42E2910C72E8A11B1268A15C92E10
:101D9000F6038A150A16182CA01AD32EE10100307A
:101DA000F800E32EE32EE108031DDA2E0130F800DF
:101DB000E32EE32EE10BE02E0130F800E32EE32EBC
:101DC0000030F800E32E0034FF2EFF2EFF2EFF2EF2
:101DD000FF2EFF2EFF2EFF2EFF2EFF2EFF2EFF2E9B
:101DE000FF2EFF2EFF2EFF2EFF2EFF2EFF2EFF2E8B
:101DF000FF2EFF2EFF2EFF2EFF2EFF2EFF2EFF2E7B
:101E0000EA08031D062F6908013C031CB32F3A089A
:101E1000FA0039086702F7003A08031C3A0F122F3C
:101E20006808132F6802FA007708031799007A08E8
:101E30009A009A1B3C2F9A08031D222F1908003C78
:101E400003183C2F1A08A9001908A800AB01153087
:101E5000AA008A110313BF278A15790803179A006D
:101E6000780899009908031D3B2F9A08031D3B2F02
:101E70009A0101309900782F9A1F622F1A08FF3CAF
:101E8000031C622F031D482F1908E13C031C622F1D
:101E90001A08A9001908A800AB011530AA008A1178
:101EA0000313BF278A15790803179A007808990049
:101EB0009908031D612F9A08031D612FFF309A00B6
:101EC0009900782F83160313A501A4018312150826
:101ED0008316A700831217088316A800831215081B
:101EE000FE0017088316A6008312A013B32F031752
:101EF0009E010313360803179D001D0D9F001E0D44
:101F0000A0009F0DA00DFC309F051F080313370490
:101F1000F700031777089B0020089C0019089B0214
:101F20001A08031C1A0F9C029C1F992F9C019B01ED
:101F3000A32F9C1BA32F1C08033C0318A32F0330C3
:101F40009C00FF309B001B0803390313B7000317E5
:101F50001C0C9E001B0C9D009E0C9D0C3F309E0592
:101F60001D080313B6008A110A16702DFF2EFF2ECE
:101F7000FF2EFF2EFF2EFF2EFF2EFF2EFF2EFF2EF9
:101F8000FF2EFF2EFF2EFF2EFF2EFF2EFF2EFF2EE9
:101F9000FF2EFF2EFF2EFF2EFF2EFF2EFF2EFF2ED9
:101FA000FF2EFF2EFF2EFF2EFF2EFF2EFF2EFF2EC9
:101FB000FF2EFF2EFF2EFF2EFF2EFF2EFF2EFF2EB9
:101FC000FF2EFF2EFF2EFF2EFF2EFF2EFF2EFF2EA9
:101FD000FF2EFF2EFF2EFF2EFF2EFF2EFF2EFF2E99
:101FE000FF2EFF2EFF2EFF2EFF2EFF2EFF2EFF2E89
:101FF000FF2EFF2EFF2EBB0EA32EBC08FB22FF0ED2
:10200000FF3FFF3FFF3FBB1FA33F641FF4097D0E4F
:10201000701F5C2DFF243E3B9E2F7E147B3BD537EB
:10202000031C680FFA0277080317A0007A08A100C2
:10203000A11F24282108FE3C031C2428031D31284D
:1020400020080B3C03183128A11BC0282108003CA4
:102050000318C028FF3A031D31282008F43C031858
:10206000C028A701A60103133A080317A50003130C
:1020700039080317A4006030A4020930031C0A3099
:10208000A5020030031C0130A6020030031C013001
:10209000A7022708AB002608AA002508A9002408E3
:1020A000A800AF01AE010330AD000C30AC000A1245
:1020B0000313BA260A167A080317A7007908A600A0
:1020C0007808A5007708A4002708AB002608AA0016
:1020D0002508A9002408A800AF01AE014030AD00DA
:1020E0007430AC00F701F801F901FA01B001B10157
:1020F000B201B3012F082E042D042C040319B028BB
:102100002030B4000310A80DA90DAA0DAB0DB00D21
:10211000B10DB20DB30D2F083302031D99282E08FF
:102120003202031D99282D083102031D99282C081D
:102130003002031CAA282C08B0022D08031C2D0F06
:10214000B1022E08031C2E0FB2022F08031C2F0F02
:10215000B3020314F70DF80DF90DFA0DB40B822834
:102160003030840083177A08A7007908A600780821
:10217000A5007708A4002508A3002408A2002629AA
:10218000A11BE328A108031DC92820080A3C031845
:10219000E3282108A9002008A800AB011530AA00F7
:1021A0000A120313BF270A1679080317A10078083B
:1021B000A000A008031DE228A108031DE228A10138
:1021C0000130A0000A29A11F09292108FF3C031C96
:1021D0000929031DEF282008F53C031C09292108C3
:1021E000A9002008A800AB011530AA000A120313A9
:1021F000BF270A1679080317A1007808A000A008D5
:10220000031D0829A108031D0829FF30A100A00013
:102210000A295029A901031336080317A800280D1D
:10222000AA00290DAB00AA0DAB0DFC30AA052A08A7
:1022300003133704F70003177708A2002B08A30045
:102240002008A20721080318210FA307A31F2B2989
:10225000A301A2013C29A31B3C292308023C03182B
:102260003C29FF3A031D382922080C3C03183C295D
:102270000330A3000C30A200220803390313B70077
:102280000317230CA900220CA800A90CA80C3F30AE
:10229000A90528080313B6000A12B7260A16031761
:1022A00003138A150A12922EE908031D5929EA0818
:1022B000031D0D2B260803179E0003132508031783
:1022C0009D0003133A08FA00390803171D02F700AE
:1022D0007A08031C7A0F6E291E086F291E02FA0065
:1022E000770899007A089A009A1F80291A08FF3CFB
:1022F000031C8029031D89291908D73C0318892943
:102300009A1B8D299A08031D89291908143C031862
:102310008D290313A0170D2B03179C019B019A1FF6
:10232000BB291A08FF3C031CBB29031D9B29190864
:10233000F53C031CBB293C3083160313A407031888
:10234000A50A23082502031CB829031DAB2924086C
:1023500022020318B8292208A4022308031C230F11
:10236000A502831203179C0101309B0083160313FF
:102370006A2A831203179A1FE7291A08FF3C031CD5
:10238000E729031DC7291908FD3C031CE729143060
:1023900083160313A4070318A50A23082502031CA8
:1023A000E429031DD729240822020318E42922085E
:1023B000A4022308031C230FA502831203179C0108
:1023C00001309B00831603136A2A831203179A1B9A
:1023D000272A9A08031DF02919080A3C0318272AFE
:1023E00083160313A508031DF92924083B3C031891
:1023F000002A3C30A4020030031C0130A502242A2C
:102400003C302202831203179D0083160313230816
:10241000831203179E000030031C01309E021D082A
:1024200083160313A407831203171E0803181E0F35
:102430001A2A1F2A83160313A50783120317FF30D6
:102440009C009B00831603136A2A831203179A1BAE
:10245000672A9A08031D302A1908023C0318672AC4
:1024600083160313A508031D392A2408133C0318F7
:10247000402A1430A4020030031C0130A502642A53
:1024800014302202831203179D00831603132308BE
:10249000831203179E000030031C01309E021D08AA
:1024A00083160313A407831203171E0803181E0FB5
:1024B0005A2A5F2A83160313A50783120317FF30D6
:1024C0009C009B00831603136A2A831203170313CD
:1024D0000D2B83160530F600831203179E0103139C
:1024E000360803179D001D0DF9001E0DFA00F90DA9
:1024F000FA0DFC30F90579089B077A0803187A0F62
:102500009C07FA010313370803179B077A0803187F
:102510007A0F9C079C1F8F2A9C019B01992A9C1B68
:10252000992A1C08033C0318992A03309C00FF30A9
:102530009B001B0803390313B70003171C0C9E00F4
:102540001B0C9D009E0C9D0C3F309E051D08031327
:10255000B6003608FE00FE0917088316A60083128F
:10256000371CB62A83162612B82A8312831626161B
:102570008312B71CBF2A8316A612C12A83128316A0
:10258000A616831203179B0A03199C0A9C1FCB2AC9
:102590009C019B01D52A9C1BD52A1C08033C0318CF
:1025A000D52A03309C00FF309B00031317088316C5
:1025B000A800831203171B089D001D1CE52A831623
:1025C00003132812E82A831203178316031328160D
:1025D000831203171B089D009D1CF42A8316031306
:1025E000A812F72A8312031783160313A81683125F
:1025F00003171C0C9E001B0C9D009E0C9D0C3F3075
:102600009E051D08FF3A83160313A700F608031D55
:102610000E2B0A128312B7260A16831683128A110A
:102620000A16702D2011F608031D0C2CE908031D55
:102630001B2BEA08031D0C2C163003179D001D08E8
:102640009D0AA400A5000A12031360250A16780843
:1026500003179E009F011E081F0203180B2C1D0864
:102660009D0AA400A5000A12031360250A16780823
:102670000317A500A7012508A6002708A90025081B
:10268000A800AB016430AA000A120313E6260A165A
:10269000790803179A00780899001D089D0AA4007C
:1026A000A5000A12031360250A1678080317A5006F
:1026B000A7012508A6002708A9002508A800AB0146
:1026C0006430AA000A120313E6260A1679080317D3
:1026D0009C0078089B001A0803136802031C082C4E
:1026E000031D7A2B670803171902031C792B0313A8
:1026F000082C0313680803171C020318812B03130B
:10270000082C031D892B1B08031367020318082CD0
:10271000031703133115670803171B02A0001C08D9
:10272000A10003136808031C680F972B9A2B03174B
:10273000A102031303172108A5002008A400A70184
:102740001530A600F801F901F701FA012708031D69
:10275000AC2B26080319C62B1030A8000310A40DBB
:10276000A50DF70DFA0D27087A02031DB92B2608CF
:102770007702031CC22B2608F702031CFA03270862
:10278000FA020314F80DF90DA80BAE2B7908A1007D
:102790007808A000A008031DD32BA108031DD32B8C
:1027A000A1010130A000A501031336080317A400FE
:1027B000240DA600250DA700A60DA70DFC30A6052B
:1027C0002608031337040317A2002708A3002008D4
:1027D000A20721080318210FA3072308033C0318AD
:1027E000F52B0330A300FF30A200220803390313A6
:1027F000B7000317230CA500220CA400A50CA40C01
:102800003F30A50524080313B6000A12B7260A169E
:1028100003179F0A2B2B03138A110A16862DDF102C
:1028200083162B08831203179400831603132B08B7
:1028300083120319252C013A0319432C023A031978
:10284000692C063A03199A2CC12C83162A1C2C2CAD
:102850008312291C2F2C8316E42C422C8312861EF3
:10286000362C013003179400402C0313311C3D2CEF
:10287000033003179400402C031305300317940012
:1028800083160313E42C83162A1C4A2C8312291C5A
:102890004F2C8316831203179401662C0313861E94
:1028A000582C201E572C0230031794000313672C5A
:1028B000A9110A1283250A16311C632C0330031751
:1028C0009400662C0313053003179400031383163A
:1028D000E42C83162A1C702C8312291C752C831659
:1028E0008312031794018A2C0313861E7C2C01305B
:1028F000031794008A2C03133118832C0530031717
:1029000094008A2C0313A019872C201D8B2C0430D3
:1029100003179400031303171408033C0319972C9F
:102920001408043C0319972C0313A01703178316EC
:102930000313E42C83162A1CA12C8312291CA62C19
:102940008316831203179401BD2C0313861EAD2C2E
:10295000013003179400BD2C0313311CB42C033039
:1029600003179400BD2C0313A018BA2CB118BE2C69
:10297000201DBE2C06300317940003138316E42C8D
:10298000831203179401831603132A1CCB2C831282
:10299000291CD02C8316831203179401E12C0313F6
:1029A000861ED72C013003179400E12C0313311C31
:1029B000DE2C033003179400E12C031305300317BA
:1029C000940083160313E42C2B08831203171402BC
:1029D0000319982D1408F93E0318892D073E031397
:1029E0009C2D8316AB018312B701B6010317892D05
:1029F00001308316AB008312201203179801970150
:102A000096010313230803179500950D960D970D56
:102A1000980D950D960D970D980DFC3095050313A7
:102A20002408031795041808AB001708AA00160815
:102A3000A9001508A800AF01AE010330AD000C30AD
:102A4000AC000A120313BA260A167A080317980074
:102A50007908970078089600770895001608950081
:102A600017089600180897009801980C970C960C78
:102A7000950C980C970C960C950C3F309805150802
:102A800003390313B7000317980C970C960C950C99
:102A9000980C970C960C950C3F309805150803136D
:102AA000B600A919552DA819B815A9150317892D10
:102AB000A01503308316AB008312A01D642D0A12EB
:102AC0008A15CC2D0A168A112011F608031D702DC7
:102AD000A01F6F2D0A128A15002F0A168A11542979
:102AE0000317892D05308316AB008312A01C812D9E
:102AF000A0102208B7002108B60031110A12B7262B
:102B00000A16B118862D201D862D122B0317892D2C
:102B100003170313360895009509371C912D1712DA
:102B2000922D1716B71C962D9712972D97160317EF
:102B300003138A150A16182C0A148A100A1582071C
:102B4000F12CF82CF82C582D592D722D722D601166
:102B5000311CF32D3A0803179700031339080317A4
:102B6000960003132608FA00250803171602F7003B
:102B70007A08031C7A0FBE2D1708BF2D1702FA0022
:102B8000770894007A089500951BCD2D9508031DB4
:102B9000E52D1408183C031CE52D951FDA2D1508AA
:102BA000FE3C0318E52DFF3A031DDA2D1408E73C1F
:102BB0000318E52D0313B115A9138316A9080319EA
:102BC000E22DA901E82D831203170313B111831617
:102BD000A9080319F42DA90BF42D8312A91BF22DBA
:102BE000A81BB817A917831683128A150A16182C62
:102BF000FF2EFF2EFF2EFF2EFF2EFF2EFF2EFF2E6D
:102C0000FF2EFF2EFF2EFF2EFF2EFF2EFF2EFF2E5C
:102C1000FF2EFF2EFF2EFF2EFF2EFF2EFF2EFF2E4C
:102C2000FF2EFF2EFF2EFF2EFF2EFF2EFF2EFF2E3C
:10300000E001DF018730031787008916A830831697
:1030100003139700AA174D10831203179401140885
:10302000383C031C1A2821301407840083138001C4
:10303000940A0F2803132010031796019501160810
:10304000273C031C2D2816088D0083168C130C14A6
:1030500083120C089507960A1F2895080319332830
:103060000313201403170C30A5000A128A1103134E
:1030700060250A168A157808DA000D300317A500B6
:103080000A128A11031360250A168A157808DB00D4
:103090000E300317A5000A128A11031360250A16C1
:1030A0008A157808DC000F300317A5000A128A1170
:1030B000031360250A168A157808DD0010300317FF
:1030C000A5000A128A11031360250A168A157808CA
:1030D000A700FF30A8000230A900B800AE000930F8
:1030E000AF000430B0000A128A1183250A168A152F
:1030F0002018B117FF3003178D0083168C130C14A2
:1031000083120C080313BD00FE3003178D008316D5
:103110008C130C1483120C080313BE00FD3003172C
:103120008D0083168C130C1483120C080313BF003C
:10313000FC3003178D0083168C130C1483120C08BB
:103140000313C00083164D1270308F0083128D134D
:10315000031794011408633C031CCB288316031344
:103160008F19D2280A308312031795001530840076
:10317000831700080319C9280230F800F701F70B7C
:10318000BF28F80BBE289730F700F70BC528800B37
:10319000BC28940AAA280A128A1103130B260A16BD
:1031A0008A1583160A128A118312282D0A168A1587
:1031B00064008101FF3083168100831203178501AB
:1031C0000313E201063090008F018E01101430309D
:1031D000F80005389200FF3083169200D9018B3039
:1031E000D8000130A3001730A2001B30DA002308FA
:1031F000A1002208A0003C30DB00DC0083129D010E
:103200003C309700FF3095008316AB012A108312E3
:10321000DF14B601B701A017EB01031794011408DE
:10322000043C031C1E290310140D6C3E8400831300
:10323000840A800184038001940A0F290313EA01A0
:10324000E901FD01FC0120130A128A112B260A163E
:103250008A158316AC01AE01AD01C201C101C001E6
:10326000BF012A11AA11C601C501C401C3012A1256
:10327000CA01C901C801C701CC01CB01AA122A1792
:103280008312A016E1010A128A1100270A168A1574
:103290005F140530F6008316A9018312061164003D
:1032A0008C1C942A831620080319A103A00BCC2997
:1032B000A108031DCC2983126408E6006308E50019
:1032C00010100F08E4000E08E3008F018E011014A7
:1032D0005F160A128A1131250A168A15A01B762953
:1032E0007E08950083162608831297006014E01468
:1032F0008316AA1D7E298312DF16831683125F1799
:103300008316DB0BC6293C30DB00DC0BC6293C30C6
:10331000DC008312BD0F9129BE0F9129BF0F9129A7
:10332000C00AFF300317970003133D0803179800E6
:103330000A128A11031343260A168A15FE30031750
:10334000970003133E08031798000A128A1103130B
:1033500043260A168A15FD300317970003133F080A
:10336000031798000A128A11031343260A168A15B6
:10337000FC300317970003134008031798000A1244
:103380008A11031343260A168A1583162308A100FF
:103390002208A0001C30DA002D082E040319DB29B6
:1033A0002D080319AE03AD0BDB29AE08031DDB2985
:1033B00083125F148316AA1CE129AA1083125F14DA
:1033C000831658082002031DEC2959082102031D09
:1033D000EC298312DF178316A108031DF3292008A7
:1033E000093C0318042A8D3083129F000A3083168B
:1033F000E100E001DF01DE01DD01FE29FF29002AF5
:1034000083129F141A2A83162008093C031D1B2AC5
:10341000A108031D1B2A853083129F004B308316A1
:10342000E100E001DF01DE01DD01162A172A182A7A
:1034300083129F1483168312A01B2E2A8316200842
:103440002402031D2F2A21082502031D2F2A2708E5
:103450008312950083162808831297008316DA0BCF
:10346000912A83126208FD000108FC000B1D3E2A10
:103470000A128A1135250A168A15322A0A128A1169
:1034800031250A168A1520175F14031713088316AF
:103490000313CA0083120317120883160313C9000B
:1034A00083120317110883160313C800831203172E
:1034B000100883160313C7008312031793019201A8
:1034C0009101900183160313AA166D08C6006C08BB
:1034D000C5006B08C4006A08C300ED01EC01EB01F4
:1034E000EA012A1683125F14141F8A2A8316D40A4B
:1034F0005408053C031D882A0A128A1183122B26C0
:103500000A168A152919862A2819381529158316A5
:103510008C2A83128316D40183125F151B30831605
:10352000DA0083128C105D2C0B1D9C2A0A128A1162
:1035300035250A168A155D2C0C1FA12A0A120028AF
:103540000A168C1DA62A0A12BC280A165F086004F7
:1035500003191B2C5F1CB02A0A12A2230A16182C6E
:10356000DF1CB52A8A110F2C8A155F1DBD2A0A128D
:103570008A1138250A168A15182CDF1DC22A0A124C
:103580009C2E0A165F1E532B5F1264086602031CF2
:10359000D92A031DCF2A650863020318D92A6308B4
:1035A0006502E9006608EA006408031C640FEA0289
:1035B000E22A65086302E9006408EA006608031C61
:1035C000660FEA02EA08031DE92A6908023C0318AB
:1035D000022B03179601950194011608043C031C65
:1035E000002B0310160D6C3E84008313840A031312
:1035F000640880008403630880000317960AED2A9C
:10360000162B03136B08EB0AF7000310F70D77086E
:103610006C3E84008313840A64088000840363087A
:1036200080006B08053C0319EB0103179601950117
:1036300094011608043C031C2E2B0310160D6C3E3F
:1036400084008313840A0008FA00840300089407A6
:103650007A0803187A0F9507960A192B1508031391
:10366000A600031714080313A500630D03179700A2
:103670000313640D03179800970D980DFC30970500
:1036800003136308031717070313E700031718084A
:103690000313E80064080318640FE807DF156015DA
:1036A0002015DF14182CDF1F6F2BDF130A12CC2616
:1036B0000A16F8080319622B2918622BA91A622B23
:1036C000AA1C652B071787126E2BA919692B2A1CB8
:1036D0006C2B071787166E2B07138716182C601C88
:1036E0008B2B60100A12CC260A16F80803197E2BC1
:1036F00029187E2BA91A7E2BAA1C812B071787124B
:103700008A2BA919852B2A1C882B071787128A2B2D
:1037100007138716182CE01CA02BE01083164D1AF7
:103720009E2B83128D1B982B83168F199E2B831231
:103730000A128A110B260A168A158316192C83126F
:10374000601DA52B8A11A72D8A15DF1E0C2CDF12F8
:1037500083162A1DC72B2A116908C2006808C100F8
:103760006708C0006608BF000030BF020130031CBC
:103770000230C0020030031C0130C1020030031CC3
:103780000130C202AA1583125F140B2C8316AA1DE6
:10379000092C69084202031CE32B031DDF2B680878
:1037A0004102031CE32B031DDF2B67084002031CAF
:1037B000E32B031DDF2B3F0866020318E32B831264
:1037C000AB01072C83163F08E6024008031C400F9C
:1037D000E7024108031C410FE8024208031C420FA4
:1037E000E9020310E90CE80CE70CE60CB330E6073D
:1037F000013003180230E707003003180130E807F2
:10380000003003180130E90767088312AB000B2C66
:1038100083168312AB01182C5F1F182C5F13031043
:103820008316E50CE40CE30CE20C63088312AC0095
:10383000831683125D2C83162A1B5E2C8312061CB2
:10384000232CA912332CA91A282CA81AB816A916A9
:1038500083162C083F3C031C342C4330AC000A1266
:103860008312A2230A1683160317091D5F2C8312E5
:10387000071F4D2C831603134D184A2C2C083F3C70
:10388000031C4A2C4330AC000A128312A2230A16EE
:1038900083164D145E2C83120317831603134D1CDD
:1038A0005B2C4D100A128A11831261260A168A15A2
:1038B0005F145D2C8316831229128316031783125B
:1038C00003134F298A110A12572DFF2EFF2EFF2EA8
:1038D000FF2EFF2EFF2EFF2EFF2EFF2EFF2EFF2E80
:1038E000FF2EFF2EFF2EFF2EFF2EFF2EFF2EFF2E70
:1038F000FF2EFF2EFF2EFF2EFF2EFF2EFF2EFF2E60
:10390000FF2EFF2EFF2EFF2EFF2EFF2EFF2EFF2E4F
:103DF000FF2EFF2EFF2EFF2EFF2EFF2E2500FF2E63
:103E0000FF2EFF2EFF2EFF2EFF2EFF2EFF2EFF2E4A
:103E1000FF2EFF2EFF2EFF2EFF2EFF2EFF2EFF2E3A
:103E2000FF2EFF2EFF2EFF2EFF2EFF2EFF2EFF2E2A
:103E3000FF2EFF2EFF2EFF2EFF2EFF2EFF2EFF2E1A
:103E4000FF2EFF2EFF2EFF2EFF2EFF2EFF2EFF2E0A
:103E5000FF2EFF2EFF2EFF2EFF2EFF2EFF2EFF2EFA
:103E6000FF2EFF2EFF2EFF2EFF2EFF2EFF2EFF2EEA
:103E7000FF2EFF2EFF2EFF2EFF2EFF2EFF2EFF2EDA
:103E8000FF2EFF2EFF2EFF2EFF2EFF2EFF2EFF2ECA
:103E9000FF2EFF2EFF2EFF2EFF2EFF2EFF2EFF2EBA
:103EA000FF2EFF2EFF2EFF2EFF2EFF2EFF2EFF2EAA
:103EB000FF2EFF2EFF2EFF2EFF2EFF2EFF2EFF2E9A
:103EC000FF2EFF2EFF2EFF2EFF2EFF2EFF2EFF2E8A
:103ED000FF2EFF2EFF2EFF2EFF2EFF2EFF2EFF2E7A
:103EE000FF2EFF2EFF2EFF2EFF2EFF2EFF2EFF2E6A
:103EF000FF2EFF2EFF2EFF2EFF2EFF2EFF2EFF2E5A
:103F0000FF2EFF2EFF2EFF2EFF2EFF2EFF2EFF2E49
:103F1000FF2EFF2EFF2EFF2EFF2EFF2EFF2EFF2E39
:103F2000FF2EFF2EFF2EFF2EFF2EFF2EFF2EFF2E29
:103F3000FF2EFF2EFF2EFF2EFF2EFF2EFF2EFF2E19
:103F4000FF2EFF2EFF2EFF2EFF2EFF2EFF2EFF2E09
:103F5000FF2EFF2EFF2EFF2EFF2EFF2EFF2EFF2EF9
:103F6000FF2EFF2EFF2EFF2EFF2EFF2EFF2EFF2EE9
:103F7000FF2EFF2EFF2EFF2EFF2EFF2EFF2EFF2ED9
:103F8000FF2EFF2EFF2EFF2EFF2EFF2EFF2EFF2EC9
:103F9000FF2EFF2EFF2EFF2EFF2EFF2EFF2EFF2EB9
:103FA000FF2EFF2EFF2EFF2EFF2EFF2EFF2EFF2EA9
:103FB000FF2EFF2EFF2EFF2EFF2EFF2EFF2EFF2E99
:103FC000FF2EFF2EFF2EFF2EFF2EFF2EFF2EFF2E89
:103FD000FF2EFF2EFF2EFF2EFF2EFF2EFF2EFF2E79
:103FE000FF2EFF2EFF2EFF2EFF2EFF2EFF2EFF2E69
:103FF000FF2EFF2EFF2EFF2EFF2EFF2EFF2EFF2E59
:04400E00FA2FFF3F47
:08400000000007000D000D0097
:1042000001000100000005000D0013000000D900AE
:104210000100040001000100B8000B00500046003E
:104220000A005500020001000000030006003500EE
:1042300037003B003D00440046004E0053005F0045
:10424000620076007B0000000000000000007400A7
:104250000100080019005F00D7007000C20048008C
:104260005000D70042006C006100640065005300FC
:1042700079007300740065006D00200063002D005C
:1042800043006C0061007300730020006600610051
:104290006E00C000CA00340031003300390039001C
:1042A00036002D00300030003100C80031003000F1
:1042B0002F00320033002F00300037000300D200FF
:1042C00030004600C1000000000000000000C800EF
:1042D000010006001900C20048005000D70042004B
:1042E0006C00610064006500530079007300740085
:1042F00065006D00200063002D0043006C0061002C
:10430000730073002000660061006E00CA00340074
:10431000310032003100340030002D004200320004
:104320003100C000C00000000000C10000004E00CD
:10433000020082000D00D2009D000000B0000400C9
:1043400074000400EC00040000000000E20004001F
:10435000F400380000000000000000000000000031
:10436000000000000000000000000000000000004D
:10437000000000000000000000000000000000003D
:10438000000000000000000000000000000000002D
:10439000000000000000000000000000000000001D
:1043A000000000000000000000000000000000000D
:1043B00000000000000000000000000000000000FD
:1043C00000000000000000000000000000000000ED
:1043D00000000000000000000000FF00FF0040009F
:1043E00010001000080060004000AA002800230010
:1043F000000071000100C200000000008400CD0038
:00000001FF
